:02000000402896
:10000800F000030E83120313A0000408B2008C1C36
:100018003928B80A3808043A0319B8010A213808F7
:10002800E220B60A65303602031C2228B601B7085A
:10003800031D21280130B7002228B701460B3828B4
:10004800B30A3308053A031D3828B40AB301340843
:100058000A3A031D3828B50AB40135080A3A031DBF
:100068003828B5010130BF008C1032088400200EFA
:100078008300F00E700E090083120313A701A80174
:10008800A901AA01AB01AC01AD01AE018316AA20FA
:10009800D020AF010518AF0A4030B0004230B1009F
:1000A800C921AF018518AF0A4330B0004530B1000F
:1000B800C921C0080319AC01C3080319AD01400BDD
:1000C8007628AC08031D76280130AC00C608031951
:1000D80071284608023A031D74280130C6007628A4
:1000E8000230C600430B8B28AD08031D8B28013056
:1000F800AD00460B82280230C6008B28B901BA0130
:10010800A801A701BF01B301B401B501C601460B9F
:100118004D28BF0803194D28BF01A70A27083C3AF4
:10012800031D9C28A80AA7012808643A0319A801F6
:100138002808B900BA01B91BBA03BA00B9012708DF
:10014800B9070318BA0AA71BBA034D28233085003C
:10015800DC3083128500C030831686008312860146
:10016800883083168100C0308B00073083129F00CF
:10017800083083168E000D308312920002308316E9
:100188008C0083128C01FA30831692008312861237
:10019800AA30B900BA000800B301B401B501BF0123
:1001A800B801B901BA01C0010518C00A4008C10068
:1001B800C201C301C401C501C6010800A10005139D
:1001C8000612851105118513F030860521080319DB
:1001D800F728013A0319FB28033A0319FF28013AC3
:1001E8000319042907293B088604051707293C0831
:1001F8008604061607293D088604851585170729EC
:100208003E0886040515861686120800A101A2017B
:10021800370B18294608023A031D18290A30BB0073
:10022800BC00BD00BE00C829A2013908A100A40075
:100238002208A500BB011030A300A40DA50DBB0D1D
:1002480003182A290A303B02031C2C290A30BB0256
:10025800A30B21292108A4002208A500A60110301B
:10026800A300A40DA50DA60D03183E290A302602E9
:10027800031C41290A30A6020314A10DA20DA30BE9
:1002880035292108A4002208A500BC011030A300CC
:10029800A40DA50DBC0D031855290A303C02031CFA
:1002A80057290A30BC02A30B4C293908A1003A0887
:1002B800A200A100A201A4002208A500BD011030DF
:1002C800A300A40DA50DBD0D03186E290A303D022B
:1002D800031C70290A30BD02A30B65292108A4005C
:1002E8002208A500A6011030A300A40DA50DA60D97
:1002F800031882290A302602031C85290A30A6021F
:100308000314A10DA20DA30B79292108A40022082A
:10031800A500BE011030A300A40DA50DBE0D031845
:1003280099290A303E02031C9B290A30BE02A30BFE
:10033800902946030319A4294608023A031DC8292F
:10034800BE08031DA9290A30BE00BD08031DB52932
:10035800BE080319B3293E080A3A031DB5290A3015
:10036800BD00BC08031DC829BD080319BF293D08E5
:100378000A3A031DC829BD080319C6293D080A3AC7
:10038800031DC8290A30BC00080083133008840004
:1003980000082F060319E529831331088400800A11
:1003A8008313310884000A300002031CE9298313EF
:1003B8003108840080018313300884002F088000EE
:0C03C800E929831331088400800108003B
:02400E00583F19
:00000001FF
