:02000000E029F5
:10000800F000030E83120313A0000A08A1008A015E
:100018000408BA008C1C1928BB0A3B08043A0319C7
:10002800BB015E223B0837228C103A088400210865
:100038008A00200E8300F00E700E09003108B70008
:100048003406B8003208031D350803196328B207BF
:100058007E30031C3328B202031C36286528B202FE
:10006800031C62283008B600B717B417B001B101F5
:100078001030B900B70CB60C031C48283308B00779
:1000880034080318340FB107B10CB00CB90B3E2873
:10009800B11B5528B00DB10DB20803196228B2037F
:1000A800370D741F6B28031C6B28B00F6B28B10F1A
:1000B8006B28B10CB00CB20F6B2865287415B2010F
:1000C8006828F414FF30B200B0018030B100B81FC6
:1000D800B1133008080035083202B8000318882820
:1000E800B809B80A3208B7003508B2003708B500B1
:1000F8003108B7003408B1003708B4003008B70039
:100108003308B0003708B300123038020318052945
:10011800B50803190529B6013108B7003406B90036
:10012800B117B4170830B802031CA0283308B6006A
:100138003408B300B4019628B8070319A928031096
:10014800B40CB30CB60CB80BA328B91FE2283308BB
:10015800B0023408031C340FB1020318BA28B109DD
:10016800B009B00A0319B10A8030B706B609B60A51
:100178000319C228B003300A0319B1030330B800C9
:10018800B108031DD3283008B1003608B000B60105
:100198000830B202031CFB28B80BC428FB28B11B8B
:1001A800DC280310B60DB00DB10DB20BD328FB2817
:1001B800741F0329B61F0329B601F4283308B007B2
:1001C80034080318340FB107031CF028B10CB00C25
:1001D800B60CB20A0319FD28741F0329B61F032998
:1001E800B00F0329B10F032903143010EA28B20114
:1001F8000029F414FF30B200B0018030B100B71FFD
:10020800B113300808008030B4066F2030080800A9
:100218008E30B600B701B801B21F1B29B209B10967
:10022800B009B00F1A29B10A0319B20AB817B208EF
:10023800031927290830B6073008B7003108B0007D
:100248003208B1003629B108031D36290830B60234
:10025800300803194829B100B0013629B70DB00D8F
:10026800B10DB603B11F3229741F4429B71F4429A1
:10027800B00F4429B10F44290314B10CB00CB60ACD
:100288003608B200B81FB113300808003108B600AC
:100298007E303202B700031C7B29B117B201B801C6
:1002A800103CB700031862290830B707031C7829E7
:1002B8003108B2003008B100B0016C2908303702AB
:1002C800031C6C29B7003008B8003108B000B10130
:1002D800B708031976290310B20CB10CB00CB80C8E
:1002E800B70B6F29B21F8129F414FF307C29000154
:1002F800B000B100B200B2139229741F8829B81F48
:100308008829B00A0319B10AB61F9229B209B1099E
:10031800B009B00F9229B10A0319B20A30080800CF
:1003280003103508320403190800B11BA829B41BAF
:100338000800330830023408031C340F3102350832
:10034800031C350F3202B429B41FB4293008330214
:100358003108031C310F34023208031C320F3502F6
:10036800031CB829031008000314080003103508FB
:10037800320403190800B11BCE29B41BDA2930084E
:1003880033023108031C310F34023208031C320FC8
:100398003502DA29B41F0800330830023408031C78
:1003A800340F31023508031C350F3202031CDE29D5
:1003B800031008000314080083160313E7218312AF
:1003C8001322F122E52923308500DC3083128500D1
:1003D800C030831686008312860188308316810018
:1003E800C0308B0007309C008E016C308F001530B8
:1003F80083129200023083168C0083128C01FA302B
:1004080083169200831286120612013083169B000F
:10041800813083129F00803083169F000800A90155
:10042800BB01BC01BD01ED01EE01EF01EC01A90129
:10043800043029020318272A683029078400831307
:100448008001A90A1C2AA901133029020318362A97
:100458000310290D403E840083138001840A800123
:10046800A90A282A0800A2000513051285110511FA
:100478008513F0308605220803194C2A013A03191E
:10048800502A033A0319542A013A0319582A5B2AB5
:100498006808860405175B2A6908860405165B2A1E
:1004A8006A08860485155B2A6B0886040515861676
:1004B80086120800A201A3013C08A5003D08A60079
:1004C800A201A3011030A400A50DA60DA20D0318CA
:1004D800712A0A302202031C732A0A30A202A40BD2
:1004E800682A2208E8003C08A5003D08A600A701E4
:1004F8001030A400A50DA60DA70D0318872A0A30F1
:100508002702031C8A2A0A30A7020314A20DA30D8E
:10051800A40B7E2A2208A5002308A600E9011030B2
:10052800A400A50DA60DE90D03189E2A0A3069023C
:10053800031CA02A0A30E902A40B952A3C08A5004E
:100548003D08A600A7011030A400A50DA60DA70D13
:100558000318B22A64302702031CB52A6430A702A4
:100568000314A20DA30DA40BA92A2208A500230891
:10057800A600EA011030A400A50DA60DEA0D031887
:10058800C92A0A306A02031CCB2A0A30EA02A40BE1
:10059800C02A3C08A5003D08A600A701A801103004
:1005A800A400A50DA60DA70DA80D03302802031C55
:1005B800EA2A031DE32AE8302702031CEA2A03304B
:1005C800A802E830A702031CA8030314A20DA30D78
:1005D800A40BD52A2208EB000800A901AA01AB0147
:1005E800AC01AD01AE01AF01BE01BF011F151F195E
:1005F800FB2A1E08BE00BF01BF00BE0183161E08ED
:100608008312BE040F30BF0503106C0D403E8400FA
:1006180083133E088000840A3F088000EC0A1430E7
:100628006C020318EC01AB0113302B0203182D2BBD
:1006380003102B0D403E840083130008AC00840A8D
:100648000008AD00AA072C08A9070318AA0AAB0AD4
:10065800182B2D08AA072C08A9070318AA0A290885
:10066800B1002A08B200B3011030B000B10DB20DCC
:10067800B30D0318432B14303302031C462B1430DC
:10068800B3020314A90DAA0DB00B3A2B2908B00028
:100698002A08B100B2010C21ED003108EE00320841
:1006A800EF006D08B0006E08B1006F08B20040306E
:1006B800B3006730B4008930B5002220ED0031085E
:1006C800EE003208EF000A30EF0203186D2B7415A4
:1006D800EF016D08B0006E08B1006F08B200B301F9
:1006E8002030B4008230B50007214A21AE0031081D
:1006F800AF002E08B0002F08B100B2010C2171081C
:10070800B3007208B4007308B500BA21031C922B19
:100718006D08F1006E08F2006F08F3006D08B00074
:100728006E08B1006F08B200B3012030B400823007
:10073800B5006F204A21AE003108AF002E08B00086
:100748002F08B100B2010C217108B3007208B4007F
:100758007308B5009421031CB72B6D08F1006E08CF
:10076800F2006F08F300EE1BD32B82306F02031CDC
:10077800D32B031DC82B20306E02031CD32B031D63
:10078800C82BED080319D32B7108B0007208B1000B
:100798007308B2004A21BC003108BD00D52BBC014A
:0407A800BD01080087
:04400E00583FFC3FDC
:00000001FF
